{
  "contractName": "Campaigns",
  "abi": [
    {
      "inputs": [],
      "stateMutability": "nonpayable",
      "type": "constructor"
    },
    {
      "anonymous": false,
      "inputs": [
        {
          "indexed": false,
          "internalType": "uint256",
          "name": "id",
          "type": "uint256"
        },
        {
          "indexed": false,
          "internalType": "string",
          "name": "name",
          "type": "string"
        },
        {
          "indexed": false,
          "internalType": "uint256",
          "name": "influencerRewardPercentage",
          "type": "uint256"
        }
      ],
      "name": "CreateCampaign",
      "type": "event"
    },
    {
      "anonymous": false,
      "inputs": [
        {
          "indexed": true,
          "internalType": "address",
          "name": "_from",
          "type": "address"
        },
        {
          "indexed": false,
          "internalType": "uint256",
          "name": "_value",
          "type": "uint256"
        }
      ],
      "name": "FundContract",
      "type": "event"
    },
    {
      "anonymous": false,
      "inputs": [
        {
          "indexed": true,
          "internalType": "address",
          "name": "_from",
          "type": "address"
        }
      ],
      "name": "GetInfluencerFunds",
      "type": "event"
    },
    {
      "stateMutability": "payable",
      "type": "fallback",
      "payable": true
    },
    {
      "inputs": [
        {
          "internalType": "uint256",
          "name": "",
          "type": "uint256"
        }
      ],
      "name": "campaigns",
      "outputs": [
        {
          "internalType": "string",
          "name": "name",
          "type": "string"
        },
        {
          "internalType": "uint256",
          "name": "id",
          "type": "uint256"
        },
        {
          "internalType": "uint256",
          "name": "influencerRewardPercentage",
          "type": "uint256"
        },
        {
          "internalType": "string",
          "name": "description",
          "type": "string"
        }
      ],
      "stateMutability": "view",
      "type": "function",
      "constant": true
    },
    {
      "inputs": [
        {
          "internalType": "address",
          "name": "",
          "type": "address"
        }
      ],
      "name": "influencerFunds",
      "outputs": [
        {
          "internalType": "uint256",
          "name": "",
          "type": "uint256"
        }
      ],
      "stateMutability": "view",
      "type": "function",
      "constant": true
    },
    {
      "inputs": [
        {
          "internalType": "uint256",
          "name": "",
          "type": "uint256"
        }
      ],
      "name": "influencers",
      "outputs": [
        {
          "internalType": "address",
          "name": "",
          "type": "address"
        }
      ],
      "stateMutability": "view",
      "type": "function",
      "constant": true
    },
    {
      "inputs": [
        {
          "internalType": "string",
          "name": "",
          "type": "string"
        }
      ],
      "name": "promoCodeToInfluencer",
      "outputs": [
        {
          "internalType": "address",
          "name": "",
          "type": "address"
        }
      ],
      "stateMutability": "view",
      "type": "function",
      "constant": true
    },
    {
      "stateMutability": "payable",
      "type": "receive",
      "payable": true
    },
    {
      "inputs": [
        {
          "internalType": "string",
          "name": "_name",
          "type": "string"
        },
        {
          "internalType": "uint256",
          "name": "_influencerRewardPercentage",
          "type": "uint256"
        },
        {
          "internalType": "string",
          "name": "_description",
          "type": "string"
        }
      ],
      "name": "createCampaign",
      "outputs": [],
      "stateMutability": "payable",
      "type": "function",
      "payable": true
    },
    {
      "inputs": [],
      "name": "getCampaigns",
      "outputs": [
        {
          "components": [
            {
              "internalType": "string",
              "name": "name",
              "type": "string"
            },
            {
              "internalType": "uint256",
              "name": "id",
              "type": "uint256"
            },
            {
              "internalType": "uint256",
              "name": "influencerRewardPercentage",
              "type": "uint256"
            },
            {
              "internalType": "string",
              "name": "description",
              "type": "string"
            },
            {
              "internalType": "string[]",
              "name": "promoCodes",
              "type": "string[]"
            }
          ],
          "internalType": "struct Campaigns.CampaignStruct[]",
          "name": "",
          "type": "tuple[]"
        }
      ],
      "stateMutability": "view",
      "type": "function",
      "constant": true
    },
    {
      "inputs": [
        {
          "internalType": "uint256",
          "name": "id",
          "type": "uint256"
        }
      ],
      "name": "getCampaign",
      "outputs": [
        {
          "components": [
            {
              "internalType": "string",
              "name": "name",
              "type": "string"
            },
            {
              "internalType": "uint256",
              "name": "id",
              "type": "uint256"
            },
            {
              "internalType": "uint256",
              "name": "influencerRewardPercentage",
              "type": "uint256"
            },
            {
              "internalType": "string",
              "name": "description",
              "type": "string"
            },
            {
              "internalType": "string[]",
              "name": "promoCodes",
              "type": "string[]"
            }
          ],
          "internalType": "struct Campaigns.CampaignStruct",
          "name": "",
          "type": "tuple"
        }
      ],
      "stateMutability": "view",
      "type": "function",
      "constant": true
    },
    {
      "inputs": [],
      "name": "getBalance",
      "outputs": [
        {
          "internalType": "uint256",
          "name": "",
          "type": "uint256"
        }
      ],
      "stateMutability": "view",
      "type": "function",
      "constant": true
    },
    {
      "inputs": [],
      "name": "getOwnerAddress",
      "outputs": [
        {
          "internalType": "address",
          "name": "",
          "type": "address"
        }
      ],
      "stateMutability": "view",
      "type": "function",
      "constant": true
    },
    {
      "inputs": [
        {
          "internalType": "string",
          "name": "_promoCode",
          "type": "string"
        }
      ],
      "name": "createPromoCode",
      "outputs": [
        {
          "internalType": "bool",
          "name": "",
          "type": "bool"
        }
      ],
      "stateMutability": "payable",
      "type": "function",
      "payable": true
    },
    {
      "inputs": [
        {
          "internalType": "uint256",
          "name": "_campaignId",
          "type": "uint256"
        },
        {
          "internalType": "string",
          "name": "_promoCode",
          "type": "string"
        }
      ],
      "name": "applyForCampaign",
      "outputs": [
        {
          "internalType": "bool",
          "name": "",
          "type": "bool"
        }
      ],
      "stateMutability": "payable",
      "type": "function",
      "payable": true
    }
  ],
  "bytecode": "0x60806040526000600155600060055534801561001a57600080fd5b5033600660006101000a81548173ffffffffffffffffffffffffffffffffffffffff021916908373ffffffffffffffffffffffffffffffffffffffff1602179055506118c58061006b6000396000f3fe6080604052600436106100a05760003560e01c80635967548f116100645780635967548f146101b95780637d02a81c146101f6578063a6b0363314610226578063c47d840414610251578063d6fb2c381461026d578063fe7c8209146102aa576100a7565b80630c4f65bd146100a957806312065fe0146100d4578063141961bc146100ff5780635598f8cc1461013f57806358bab20b1461017c576100a7565b366100a757005b005b3480156100b557600080fd5b506100be6102da565b6040516100cb9190610f25565b60405180910390f35b3480156100e057600080fd5b506100e9610304565b6040516100f69190610f59565b60405180910390f35b34801561010b57600080fd5b5061012660048036038101906101219190610fb4565b61030e565b604051610136949392919061107a565b60405180910390f35b34801561014b57600080fd5b5061016660048036038101906101619190610fb4565b61045e565b604051610173919061126c565b60405180910390f35b34801561018857600080fd5b506101a3600480360381019061019e91906112ba565b6106ab565b6040516101b09190610f59565b60405180910390f35b3480156101c557600080fd5b506101e060048036038101906101db9190610fb4565b6106c3565b6040516101ed9190610f25565b60405180910390f35b610210600480360381019061020b919061141c565b610702565b60405161021d9190611493565b60405180910390f35b34801561023257600080fd5b5061023b6107e9565b60405161024891906115f4565b60405180910390f35b61026b60048036038101906102669190611616565b610a59565b005b34801561027957600080fd5b50610294600480360381019061028f91906116a1565b610c22565b6040516102a19190610f25565b60405180910390f35b6102c460048036038101906102bf91906116a1565b610c6b565b6040516102d19190611493565b60405180910390f35b6000600660009054906101000a900473ffffffffffffffffffffffffffffffffffffffff16905090565b6000600554905090565b6002818154811061031e57600080fd5b906000526020600020906005020160009150905080600001805461034190611719565b80601f016020809104026020016040519081016040528092919081815260200182805461036d90611719565b80156103ba5780601f1061038f576101008083540402835291602001916103ba565b820191906000526020600020905b81548152906001019060200180831161039d57829003601f168201915b5050505050908060010154908060020154908060030180546103db90611719565b80601f016020809104026020016040519081016040528092919081815260200182805461040790611719565b80156104545780601f1061042957610100808354040283529160200191610454565b820191906000526020600020905b81548152906001019060200180831161043757829003601f168201915b5050505050905084565b610466610d4e565b6002828154811061047a5761047961174a565b5b90600052602060002090600502016040518060a00160405290816000820180546104a390611719565b80601f01602080910402602001604051908101604052809291908181526020018280546104cf90611719565b801561051c5780601f106104f15761010080835404028352916020019161051c565b820191906000526020600020905b8154815290600101906020018083116104ff57829003601f168201915b50505050508152602001600182015481526020016002820154815260200160038201805461054990611719565b80601f016020809104026020016040519081016040528092919081815260200182805461057590611719565b80156105c25780601f10610597576101008083540402835291602001916105c2565b820191906000526020600020905b8154815290600101906020018083116105a557829003601f168201915b5050505050815260200160048201805480602002602001604051908101604052809291908181526020016000905b8282101561069c57838290600052602060002001805461060f90611719565b80601f016020809104026020016040519081016040528092919081815260200182805461063b90611719565b80156106885780601f1061065d57610100808354040283529160200191610688565b820191906000526020600020905b81548152906001019060200180831161066b57829003601f168201915b5050505050815260200190600101906105f0565b50505050815250509050919050565b60036020528060005260406000206000915090505481565b600081815481106106d357600080fd5b906000526020600020016000915054906101000a900473ffffffffffffffffffffffffffffffffffffffff1681565b60003373ffffffffffffffffffffffffffffffffffffffff1660048360405161072b91906117b5565b908152602001604051809103902060009054906101000a900473ffffffffffffffffffffffffffffffffffffffff1673ffffffffffffffffffffffffffffffffffffffff161461077a57600080fd5b6000600284815481106107905761078f61174a565b5b9060005260206000209060050201905080600401839080600181540180825580915050600190039060005260206000200160009091909190915090805190602001906107dd929190610d7d565b50600191505092915050565b60606002805480602002602001604051908101604052809291908181526020016000905b82821015610a5057838290600052602060002090600502016040518060a001604052908160008201805461084090611719565b80601f016020809104026020016040519081016040528092919081815260200182805461086c90611719565b80156108b95780601f1061088e576101008083540402835291602001916108b9565b820191906000526020600020905b81548152906001019060200180831161089c57829003601f168201915b5050505050815260200160018201548152602001600282015481526020016003820180546108e690611719565b80601f016020809104026020016040519081016040528092919081815260200182805461091290611719565b801561095f5780601f106109345761010080835404028352916020019161095f565b820191906000526020600020905b81548152906001019060200180831161094257829003601f168201915b5050505050815260200160048201805480602002602001604051908101604052809291908181526020016000905b82821015610a395783829060005260206000200180546109ac90611719565b80601f01602080910402602001604051908101604052809291908181526020018280546109d890611719565b8015610a255780601f106109fa57610100808354040283529160200191610a25565b820191906000526020600020905b815481529060010190602001808311610a0857829003601f168201915b50505050508152602001906001019061098d565b50505050815250508152602001906001019061080d565b50505050905090565b600660009054906101000a900473ffffffffffffffffffffffffffffffffffffffff1673ffffffffffffffffffffffffffffffffffffffff163373ffffffffffffffffffffffffffffffffffffffff1614610ab357600080fd5b6001806000828254610ac591906117fb565b9250508190555060008067ffffffffffffffff811115610ae857610ae76112f1565b5b604051908082528060200260200182016040528015610b1b57816020015b6060815260200190600190039081610b065790505b50905060026040518060a0016040528086815260200160015481526020018581526020018481526020018381525090806001815401808255809150506001900390600052602060002090600502016000909190919091506000820151816000019080519060200190610b8e929190610d7d565b5060208201518160010155604082015181600201556060820151816003019080519060200190610bbf929190610d7d565b506080820151816004019080519060200190610bdc929190610e03565b5050507f7d5548f6791435144e003aa0134530a53a91540cd0cdd1882a45fd62a6a9e1f66001548585604051610c1493929190611851565b60405180910390a150505050565b6004818051602081018201805184825260208301602085012081835280955050505050506000915054906101000a900473ffffffffffffffffffffffffffffffffffffffff1681565b60008073ffffffffffffffffffffffffffffffffffffffff16600483604051610c9491906117b5565b908152602001604051809103902060009054906101000a900473ffffffffffffffffffffffffffffffffffffffff1673ffffffffffffffffffffffffffffffffffffffff1603610d445733600483604051610cef91906117b5565b908152602001604051809103902060006101000a81548173ffffffffffffffffffffffffffffffffffffffff021916908373ffffffffffffffffffffffffffffffffffffffff16021790555060019050610d49565b600090505b919050565b6040518060a0016040528060608152602001600081526020016000815260200160608152602001606081525090565b828054610d8990611719565b90600052602060002090601f016020900481019282610dab5760008555610df2565b82601f10610dc457805160ff1916838001178555610df2565b82800160010185558215610df2579182015b82811115610df1578251825591602001919060010190610dd6565b5b509050610dff9190610e63565b5090565b828054828255906000526020600020908101928215610e52579160200282015b82811115610e51578251829080519060200190610e41929190610d7d565b5091602001919060010190610e23565b5b509050610e5f9190610e80565b5090565b5b80821115610e7c576000816000905550600101610e64565b5090565b5b80821115610ea05760008181610e979190610ea4565b50600101610e81565b5090565b508054610eb090611719565b6000825580601f10610ec25750610ee1565b601f016020900490600052602060002090810190610ee09190610e63565b5b50565b600073ffffffffffffffffffffffffffffffffffffffff82169050919050565b6000610f0f82610ee4565b9050919050565b610f1f81610f04565b82525050565b6000602082019050610f3a6000830184610f16565b92915050565b6000819050919050565b610f5381610f40565b82525050565b6000602082019050610f6e6000830184610f4a565b92915050565b6000604051905090565b600080fd5b600080fd5b610f9181610f40565b8114610f9c57600080fd5b50565b600081359050610fae81610f88565b92915050565b600060208284031215610fca57610fc9610f7e565b5b6000610fd884828501610f9f565b91505092915050565b600081519050919050565b600082825260208201905092915050565b60005b8381101561101b578082015181840152602081019050611000565b8381111561102a576000848401525b50505050565b6000601f19601f8301169050919050565b600061104c82610fe1565b6110568185610fec565b9350611066818560208601610ffd565b61106f81611030565b840191505092915050565b600060808201905081810360008301526110948187611041565b90506110a36020830186610f4a565b6110b06040830185610f4a565b81810360608301526110c28184611041565b905095945050505050565b600082825260208201905092915050565b60006110e982610fe1565b6110f381856110cd565b9350611103818560208601610ffd565b61110c81611030565b840191505092915050565b61112081610f40565b82525050565b600081519050919050565b600082825260208201905092915050565b6000819050602082019050919050565b600061115e83836110de565b905092915050565b6000602082019050919050565b600061117e82611126565b6111888185611131565b93508360208202850161119a85611142565b8060005b858110156111d657848403895281516111b78582611152565b94506111c283611166565b925060208a0199505060018101905061119e565b50829750879550505050505092915050565b600060a083016000830151848203600086015261120582826110de565b915050602083015161121a6020860182611117565b50604083015161122d6040860182611117565b506060830151848203606086015261124582826110de565b9150506080830151848203608086015261125f8282611173565b9150508091505092915050565b6000602082019050818103600083015261128681846111e8565b905092915050565b61129781610f04565b81146112a257600080fd5b50565b6000813590506112b48161128e565b92915050565b6000602082840312156112d0576112cf610f7e565b5b60006112de848285016112a5565b91505092915050565b600080fd5b600080fd5b7f4e487b7100000000000000000000000000000000000000000000000000000000600052604160045260246000fd5b61132982611030565b810181811067ffffffffffffffff82111715611348576113476112f1565b5b80604052505050565b600061135b610f74565b90506113678282611320565b919050565b600067ffffffffffffffff821115611387576113866112f1565b5b61139082611030565b9050602081019050919050565b82818337600083830152505050565b60006113bf6113ba8461136c565b611351565b9050828152602081018484840111156113db576113da6112ec565b5b6113e684828561139d565b509392505050565b600082601f830112611403576114026112e7565b5b81356114138482602086016113ac565b91505092915050565b6000806040838503121561143357611432610f7e565b5b600061144185828601610f9f565b925050602083013567ffffffffffffffff81111561146257611461610f83565b5b61146e858286016113ee565b9150509250929050565b60008115159050919050565b61148d81611478565b82525050565b60006020820190506114a86000830184611484565b92915050565b600081519050919050565b600082825260208201905092915050565b6000819050602082019050919050565b600060a08301600083015184820360008601526114f782826110de565b915050602083015161150c6020860182611117565b50604083015161151f6040860182611117565b506060830151848203606086015261153782826110de565b915050608083015184820360808601526115518282611173565b9150508091505092915050565b600061156a83836114da565b905092915050565b6000602082019050919050565b600061158a826114ae565b61159481856114b9565b9350836020820285016115a6856114ca565b8060005b858110156115e257848403895281516115c3858261155e565b94506115ce83611572565b925060208a019950506001810190506115aa565b50829750879550505050505092915050565b6000602082019050818103600083015261160e818461157f565b905092915050565b60008060006060848603121561162f5761162e610f7e565b5b600084013567ffffffffffffffff81111561164d5761164c610f83565b5b611659868287016113ee565b935050602061166a86828701610f9f565b925050604084013567ffffffffffffffff81111561168b5761168a610f83565b5b611697868287016113ee565b9150509250925092565b6000602082840312156116b7576116b6610f7e565b5b600082013567ffffffffffffffff8111156116d5576116d4610f83565b5b6116e1848285016113ee565b91505092915050565b7f4e487b7100000000000000000000000000000000000000000000000000000000600052602260045260246000fd5b6000600282049050600182168061173157607f821691505b602082108103611744576117436116ea565b5b50919050565b7f4e487b7100000000000000000000000000000000000000000000000000000000600052603260045260246000fd5b600081905092915050565b600061178f82610fe1565b6117998185611779565b93506117a9818560208601610ffd565b80840191505092915050565b60006117c18284611784565b915081905092915050565b7f4e487b7100000000000000000000000000000000000000000000000000000000600052601160045260246000fd5b600061180682610f40565b915061181183610f40565b9250827fffffffffffffffffffffffffffffffffffffffffffffffffffffffffffffffff03821115611846576118456117cc565b5b828201905092915050565b60006060820190506118666000830186610f4a565b81810360208301526118788185611041565b90506118876040830184610f4a565b94935050505056fea26469706673582212201ba0779ce06305bd7b07e6a18d16527c502e4e48ff3d4faaded5821e472a39b164736f6c634300080e0033",
  "immutableReferences": {},
  "source": "// SPDX-License-Identifier: MIT\npragma solidity >=0.4.22 <0.9.0;\n\ncontract Campaigns {\n\n    event FundContract(address indexed _from, uint _value);\n\n    event GetInfluencerFunds(address indexed _from);\n\n    event CreateCampaign(uint id, string name, uint influencerRewardPercentage);\n\n    address[] public influencers;\n\n    uint campaignCounter = 0;\n\n    struct CampaignStruct {\n        string name;\n        uint id;\n        uint influencerRewardPercentage;\n        string description;\n        string[] promoCodes;\n    }\n\n    CampaignStruct[] public campaigns;\n\n    mapping (address => uint) public influencerFunds;\n    mapping (string => address) public promoCodeToInfluencer;\n    uint256 availableCampaignFunds = 0;\n\n    // Private state variable\n    address private owner;\n\n     // Defining a constructor   \n     constructor() {   \n        owner=payable(msg.sender);\n    }\n\n    receive() external payable {}\n\n    fallback() external payable {}\n\n    function createCampaign(string memory _name, uint _influencerRewardPercentage, string memory _description) _onlyOwner public payable {\n        campaignCounter += 1;\n        string[] memory promoCodes = new string[](0);\n        campaigns.push(CampaignStruct(\n            _name,\n            campaignCounter,\n            _influencerRewardPercentage,\n            _description,\n            promoCodes\n        ));\n        emit CreateCampaign(campaignCounter, _name, _influencerRewardPercentage);\n    }\n\n    function getCampaigns() public view returns (CampaignStruct[] memory) {\n        return campaigns;\n    }\n\n    function getCampaign(uint id) public view returns (CampaignStruct memory) {\n        return campaigns[id];\n    }\n\n    function getBalance() public view returns (uint) {\n        return availableCampaignFunds;\n    }\n\n    modifier _onlyOwner {\n        require(msg.sender == owner);\n        _;\n    }\n\n    function getOwnerAddress() public view returns (address) {\n        return owner;\n    }\n\n    function createPromoCode(string memory _promoCode) public payable returns (bool) {\n        if (promoCodeToInfluencer[_promoCode] == address(0)) {\n            promoCodeToInfluencer[_promoCode] = msg.sender;\n            return true;\n        }\n        return false;\n    }\n\n    function applyForCampaign(uint _campaignId, string memory _promoCode) public payable returns (bool) {\n        require(promoCodeToInfluencer[_promoCode] == msg.sender); // so that someone else won't be able to apply for a campaign\n        CampaignStruct storage campaign = campaigns[_campaignId];\n        campaign.promoCodes.push(_promoCode);\n        return true;\n    }\n\n    /*function removeInfluencerFunds(address _influencer) _onlyOwner public payable {\n        availableCampaignFunds += influencerFunds[_influencer];\n        influencerFunds[_influencer] = 0;\n    }\n\n    function fundInfluencer(uint amount, address _influencer) _onlyOwner public payable {\n        influencerFunds[_influencer] += amount;\n        availableCampaignFunds -= amount;\n    }\n\n    function applyInfluencer(address _influencer) public payable {\n        influencerFunds[_influencer] = 0;\n    }\n    \n    function getInfluencerFunds (address _influencer) public view returns (uint, bool) {\n        return (influencerFunds[_influencer], address(0) == _influencer);\n    }\n    \n    // public function to return the amount of donations\n    function getFunds() view public returns(uint) {\n        return availableCampaignFunds;\n    }*/\n\n    //public function to make donate\n    /*function fundContract() public payable _onlyOwner {\n        emit FundContract(msg.sender, msg.value);\n        availableCampaignFunds += msg.value;\n    }*/\n}\n",
  "sourcePath": "/home/kevin/magistrska/truffle/contracts/Campaings.sol",
  "compiler": {
    "name": "solc",
    "version": "0.8.14+commit.80d49f37.Emscripten.clang"
  },
  "schemaVersion": "3.4.8",
  "updatedAt": "2022-07-17T12:48:42.575Z",
  "networkType": "ethereum",
  "devdoc": {
    "kind": "dev",
    "methods": {},
    "version": 1
  },
  "userdoc": {
    "kind": "user",
    "methods": {},
    "version": 1
  }
}